:0604C00052656164790041
:1003D200010C00012100012200011000010F0002A6
:1003E200080000020A0000021D0000021F000006B1
:1003F20011413A2D2D2D000617423A2D2D2D0002C6
:030402000D0000EA
:0302DB00E4FDFF40
:1002DE008D26C3EF648094805004C290D291D3EFE8
:1002EE00648094804004D290C291EF7004C290C298
:1002FE0091EF3395E0FE1204A08F21C3E5266480B2
:10030E0094805004C292D293D3E5266480948040A8
:10031E0004D292C293E5267004C292C293AF26EF26
:0A032E003395E0FE1204A08F222296
:10046600438901758A23758CFFD2AFD2A9D28C221B
:03000B000201B837
:1001B800C0E0C0F0C0D075D000C000C004C005C009
:1001C80006C007758A23758CFF050CE50CB521025E
:1001D800B294E50CB52204B295800CE50CB4640722
:1001E800750C00D294D295050EE50E7002050D64CB
:1001F800A87004E50D6461703DAE08AF09FC7D1E72
:100208001201517C027D311201638E1D8F1EAE0AD0
:10021800AF0B7C007D1E1201517C027D31120163FF
:100228008E1F8F20750800750900750A00750B0070
:10023800750D00750E00D007D006D005D004D0008B
:07024800D0D0D0F0D0E0326D
:10043200759850438920E4F587D29C758DFD758BA4
:0A044200FDC298D2AFD2ACD28E22D8
:030023000204854F
:0E048500859923C2988523993099FDC299323A
:10033800E523B47107AD0FAF101202DEE523B468F0
:100348000DE510F404FFE50FF404FD1202DEE523C9
:10035800B47A0AE510F404FFAD0F1202DEE523B407
:10036800790AE50FF404FDAF101202DEE523B47438
:10037800031202DBE523B4390675105A750F5AE5E6
:0B03880023B43506751032750F3222C9
:04044C007FF47E01BA
:10045000EF1FAA0670011E4A600BE4FDEDC39478FD
:0504600050EE0D80F7D5
:010465002274
:0904B700D2A8D288D2AAD28A226E
:03000300020016E2
:0D001600C0E00509E50970020508D0E032E0
:0300130002049351
:0D049300C0E0050BE50B7002050AD0E03259
:0F047600C2AC2099078F993099FDC299D2AC2260
:0B04AC002099078F993099FDC299221A
:10039300AF1E7A007913120406AF207A007919127E
:0603A30004067A00791146
:1003A9008B268A278928C2ACAB26AA27A92812013D
:1003B9000460130528E5287002052714F9120104C1
:0903C900FF1204AC80E2D2AC2268
:10040600EF75F06484243012011DEF75F00A8475CF
:10041600F00A84E5F0243090000112012FEF75F008
:0C0426000A84E5F0243090000202012F4F
:10002600E4F524F5251204661204B712043212020E
:10003600DBD296751032750F32E524702F20962488
:100046007D9D7F9D1202DE12044CE510F404FFAD87
:100056000F1202DE12044CC290C291C292C2937574
:1000660024018008C290C291C292C293E524B401D1
:1000760018E523B474137D637F631202DE12044C09
:10008600E4FDFF1202DE752402E524B4021F7F415F
:100096001204760F1204767F321204767F30120431
:1000A600767BFF7A0479C01203A9752403E52464DC
:1000B60003703CF51D751E96F51F7520C9FB1203CE
:1000C600937B007A0079171203A97D327F321202E0
:1000D600DE7F887E131204507B001203937B007A26
:1000E6000079171203A9E4FDFF1202DE752404E568
:0E00F600246404600302003F12033802003F3E
:0300000002024FAA
:0C024F00787FE4F6D8FD75812802029645
:10010400BB010689828A83E0225002E722BBFE02F9
:09011400E32289828A83E493222C
:10011D00BB010689828A83F0225002F722BBFE01C1
:02012D00F322BB
:10012F00F8BB010DE58229F582E5833AF583E8F006
:10013F00225006E92582C8F622BBFE05E92582C8B2
:02014F00F2229A
:10015100EF8DF0A4A8F0CF8CF0A428CE8DF0A42EC2
:02016100FE227C
:10016300BC000BBE0029EF8DF084FFADF022E4CC80
:10017300F875F008EF2FFFEE33FEEC33FCEE9DEC49
:10018300984005FCEE9DFE0FD5F0E9E4CEFD22ED8F
:10019300F8F5F0EE8420D21CFEADF075F008EF2FD9
:1001A300FFED33FD4007985006D5F0F222C398FDCA
:0501B3000FD5F0EA2267
:0C04A000EE30E707C3E49FFFE49EFE225D
:10025B00020026E493A3F8E493A34003F68001F293
:10026B0008DFF48029E493A3F85407240CC8C333A4
:10027B00C4540F4420C8834004F456800146F6DF73
:10028B00E4800B01020408102040809003D2E47E2E
:10029B00019360BCA3FF543F30E509541FFEE49368
:1002AB00A360010ECF54C025E060A840B8E493A32F
:1002BB00FAE493A3F8E493A3C8C582C8CAC583CA5A
:1002CB00F0A3C8C582C8CAC583CADFE9DEE780BE12
:0104050000F6
:00000001FF
