:0F023900010800010B00010C00010A000109007F
:03012000E4FDFFFC
:100123008D0FC3EF648094805004C290D291D3EFBB
:10013300648094804004D290C291EF7004C290C254
:1001430091EF3395E0FE1202578F0BC3E50F6480E6
:1001530094805004C292D293D3E50F64809480407C
:1001630004D292C293E50F7004C292C293AF0FEF11
:0A0173003395E0FE1202578F0C22B4
:10000E00438901758A23758CFFD2AFD2A9D28C2277
:03000B000201D817
:1001D800C0E0C0D0758A23758CFF0508E508B50B0B
:1001E80002B294E508B50C04B295800CE508B46435
:0D01F80007750800D294D295D0D0D0E03227
:10020500759850438920E4F587D29C758DFD758BD3
:0A021500FDC298D2AFD2ACD28E2207
:030023000202498D
:0E02490085990DC298850D993099FDC29932A4
:10017D00E50DB47107AD09AF0A120123E50DB468A1
:10018D000DE50AF404FFE509F404FD120123E50D64
:10019D00B47A0AE509241EFDAF0A120123E50DB458
:1001AD00790AE50A241EFFAD09120123E50DB47489
:1001BD0003120120E50DB43906750A5A75095AE581
:0B01CD000DB43506750A3275093222A8
:04021F007FF47E01E9
:10022300EF1FAA0670011E4A600BE4FDEDC394782C
:0502330050EE0D80F704
:0102380022A3
:1000B200E4F50E12000E120205120120D296750A04
:1000C20032750932E50E702F2096247D9D7F9D1298
:1000D200012312021FE50AF404FFAD0912012312E3
:1000E200021FC290C291C292C293750E018008C2D1
:1000F20090C291C292C293E50EB40118E50DB47498
:10010200137D637F6312012312021FE4FDFF1201BC
:0E01120023750E02E50EB402AB12017D80A62D
:03000000020026D5
:0C002600787FE4F6D8FD75810F02006DB4
:0C025700EE30E707C3E49FFFE49EFE22A8
:100032000200B2E493A3F8E493A34003F68001F232
:1000420008DFF48029E493A3F85407240CC8C333CF
:10005200C4540F4420C8834004F456800146F6DF9E
:10006200E4800B0102040810204080900239E47EF3
:10007200019360BCA3FF543F30E509541FFEE49393
:10008200A360010ECF54C025E060A840B8E493A35A
:10009200FAE493A3F8E493A3C8C582C8CAC583CA85
:1000A200F0A3C8C582C8CAC583CADFE9DEE780BE3D
:0102480000B5
:00000001FF
